:020000040800F2
:10000000680E0020B9D0000817530008E756000812
:1000100000000000000000000000000000000000E0
:10002000000000000000000000000000A19E000889
:100030000000000000000000639E00089DCF000843
:10004000778B00082F8D0008838D0008FB9D00082A
:1000500093AB0008EBBE000813C10008C1CF000835
:100060007FC300083BC700088DC8000831C90008DD
:1000700031CB00080BC80008D9C900084DCB0008D7
:1000800033CA00088BC8000867D0000873D0000886
:10009000E1D00008A5CA0008EBCA0008E3D00008B8
:1000A000E5D00008E7D00008E9D00008ADCF00088F
:1000B000EBD00008EDD00008EFD00008F1D0000828
:1000C000F0B585B0894C102500270126A088009046
:1000D00001960297032003906946206801F06EFDA7
:1000E0000C346D1EF2D1824CA088009001960297CC
:1000F000032003906946206801F060FD208A00908B
:1001000001960297032003906946E06801F056FDCE
:10011000A08B009001960297032003906946A06986
:1001200001F04CFD208D0090019602970320039072
:100130006946606A01F042FD300300901120019091
:1001400002976946A24801F039FDA24CA0880090B0
:1001500001966946206801F031FDA08B0090694648
:10016000A06901F02BFD9C4D288800906946A06C89
:1001700001F024FDA88900906946A86801F01EFDE1
:1001800005B0F0BD00B581B0944942001018800060
:1001900008188021C900401801228188006801F0F8
:1001A00058FE01B000BD00B581B08C494200101866
:1001B000800008188021C90040180022818800684A
:1001C00001F047FE01B000BD30B581B00500002947
:1001D00021D0022910D000D384E0002D01D10220CB
:1001E00000E008207D4C4100081880002018802184
:1001F000C9004018002271E0002D01D1042000E068
:100200000920764C41000818800020188021C90080
:100210004018002262E0002D01D1022000E00820F9
:100220006E4C41000818800020188021C900401839
:1002300001228188006801F00CFE002D01D102200E
:1002400000E0082041000818800020188021C90023
:10025000401800228188006801F0FBFD002D01D1CB
:10026000022000E0082041000818800020188021AA
:10027000C900401801228188006801F0EAFD002DC4
:1002800001D1042000E00920410008188000201856
:100290008021C900401801228188006801F0D9FD41
:1002A000002D01D1042000E0092041000818800041
:1002B00020188021C900401800228188006801F0C0
:1002C000C8FD002D01D1042000E0092041000818DC
:1002D000800020188021C900401801228188006810
:1002E00001F0B7FD01B030BD000000009407002010
:1002F00054080020F0B581B00400002952D0022932
:1003000027D062D2002C01D10E2000E00420AC499D
:10031000C20892008A18136A0F244507ED0EAC40FC
:10032000A34313620B6844000325A540EA4313402E
:100330000226A6401E430E608B6813401D438D604D
:100340004B6801248440A3434B60C8680240CA60E4
:100350003BE002220121002C03D1012002231C4C8E
:1003600003E0002006239024E4059D00266A0F2761
:10037000AF40BE43A840304320625800032585406B
:10038000EE432768374082403A432260A0683040FD
:100390000543A5606068994088436060E068064056
:1003A000E66012E0002C02D18021C90100E010219A
:1003B000834801F0D8FC002C02D10421044802E05B
:1003C00040219020C00501F0CEFC01B0F0BD00003E
:1003D00000080048AC070020F80700209403002024
:1003E00030B583B0774C7848206000206060A06012
:1003F000E0600121216104226261A061E06121626B
:100400006062E06221636163200001F049FD8020A9
:1004100040010190062002906C4DA868009069464A
:10042000200001F0B5FE686900906946200001F0E7
:10043000AFFE286A00906946200001F0A9FEE86A34
:1004400000906946200001F0A3FEA86B0090694669
:10045000200001F09DFE5E4DA868009069462000D6
:1004600001F096FE686900906946200001F090FE58
:10047000286A00906946200001F08AFEE86A009030
:100480006946200001F084FEA86B009069462000B8
:1004900001F07EFE03B030BD10B586B003200190A0
:1004A00000200290494CA08800906946206801F025
:1004B00085FB208A00906946E06801F07FFBA08BF5
:1004C00000906946A06901F079FB208D0090694693
:1004D000606A01F073FBA08E00906946206B01F00A
:1004E0006DFB06B010BD10B53A4C3B4820600020B3
:1004F0006060A0608021E16080312161C90061619C
:100500002021A161E061200001F0B5FF200001F091
:1005100089FF2C48C4636062002203210C2002F092
:10052000C3F90C2002F0DAF910BD10B586B0032033
:10053000019000200290264CA08800906946206817
:1005400001F03CFB208A00906946E06801F036FB30
:10055000A08B00906946A06901F030FB208D0090CF
:100560006946606A01F02AFBA08E00906946206B04
:1005700001F024FB06B010BD30B581B0FFF730FFAD
:10058000104D280002F0DAF9144C0A22210024311F
:10059000280001F03BFDD34820600020A0806020AF
:1005A00060618020A06103202062200002F014FA24
:1005B000FFF786FD02F07AFB01B030BD00000000BD
:1005C00000040048A43D00200024014084080020CD
:1005D000C00800202C3E002008000240583D0020AA
:1005E000FEB588B00600C048016801220A430260D7
:1005F0000068C107C90F00910098300000F0CCF9E5
:10060000300000F0EDF9300000F094F9B74F7002BF
:1006100038180190F03002F0C9FB300000F04EFABB
:10062000300000F012FA002E02D10021102001E06B
:1006300001210E20002202F037F9002E01D11020F6
:1006400000E00E2002F04AF910A80078012800D13D
:1006500090E0032800D18DE0002E62D1B1483D1812
:100660000122A989A86801F0F4FBAF483C18A088D2
:1006700000902068AD4902680A400260426AAC4BB3
:100680001340436282680A4082604268BB4B134059
:100690004360C2680A40C260B94B1A681207120F61
:1006A0009025ED05A84201D1002014E0B54DA842E7
:1006B00001D101200FE0B54DA84201D102200AE08E
:1006C000B14DA84201D1032005E0B14DA84201D1AE
:1006D000042000E00520824212D118680F229043C6
:1006E00018600098C243AB48036813400360436836
:1006F00013404360836813408360C3681A40C2603C
:10070000206802680A400260C2681140C16001228C
:10071000218D606A01F09DFB0122218AE06801F0D1
:1007200098FB012E22D180483C180122A18BA069A0
:1007300001F08FFB0020039004900320059079487E
:100740003D18298802910722E06B01F075F9072214
:1007500002A9E06B01F0E2F90122A98C286A01F0FC
:1007600078FB0122298B686901F073FB002280214C
:1007700049019EE0002E71D16B483C18A08807907B
:1007800020686A4902680A400260426A684B134066
:10079000436282680A408260784A4368134043603B
:1007A000C3680B40C360764B1D682D072D0F009565
:1007B0009025ED05A84201D1002014E0714DA8421A
:1007C00001D101200FE0714DA84201D102200AE0C1
:1007D0006D4DA84201D1032005E06D4DA84201D125
:1007E000042000E00520009D854212D118680F25E5
:1007F000A84318600798C343664805681D40056014
:1008000045681D40456085681D408560C5682B4072
:10081000C360206803680B4080256D041D4305609C
:100820008368CD431D43856043681A404260C268B7
:100830001140C160A088216888613A483D180022B3
:10084000A989A86801F005FB0122218D606A01F0E9
:1008500000FB0122218AE06801F0FBFA012E26D17B
:100860000120039000200490032005902D483D189E
:100870002988029140383C180722E06B01F0DCF82F
:10088000072202A9E06B01F049F92888E16B886131
:100890000022A18BA06901F0DCFA0122A98C286A50
:1008A00001F0D7FA0122298B686901F0D2FA0122FE
:1008B0001103364801F0CDFA01200199FF22CE3212
:1008C00088540198F6214900401808A91CC91CC089
:1008D00010A800780199FC225200885400200BB027
:1008E000F0BD0000003002401410024094030020CC
:1008F00071B581B00E001500914C022020620122DA
:1009000001A9200002F0D9F8032020622A0031005A
:10091000200002F08FF801000020C043484002B0E0
:1009200070BD00004C0400000C040000FFFFFFFC41
:10093000FFFFF0FF00B581B00100A3484A02801814
:10094000F030A24A002900D0921C0260002282608E
:1009500060234360002901D11B0101E080239B003B
:10096000C36002614261002901D080221204C26189
:100970000321016202F0CEF901B000BDFFEFFFFFDD
:100980001400014000040048000C00480008004822
:10099000001000480004014000B581B001008A4801
:1009A0004A0280181830002901D1B14900E0C44939
:1009B0000160002141608160E022D200C2600161DB
:1009C00041618022920082618022026241628162E2
:1009D0000A22C2620163416302F00CFA01B000BD59
:1009E000F0B587B007007848790244187C3402F0EB
:1009F000DBFEB24902F067FF0600002F01D1B148CB
:100A000000E0B148206000256560A560701EE060D0
:100A10002561200002F0AEFF200003F0C9F860203D
:100A200000907008401E0190029504950695802064
:100A300040000590002F01D1002200E00422694609
:100A4000200003F0F2FB07B0F0BD30B58BB05E497B
:100A5000420289188E2252008C18002801D19B482E
:100A600000E09B48206002F09FFE9A4902F02BFFB5
:100A7000401E60600025A560FF20E0602561200029
:100A800002F078FF80204001069006A9200003F0C4
:100A900049FC200003F050F90095019569462000BB
:100AA00003F030FE02950120039004950595002285
:100AB00002A9200003F0E2FA0BB030BD30B58FB0D0
:100AC000414942028918AC2252008C18002801D1F9
:100AD000814800E08148206002F066FE804902F013
:100AE000F2FE401E60600025A5603C20E0602561AC
:100AF0006561200002F03EFF200002F0AFFF079585
:100B0000089509950A950B95802080010C900D950C
:100B100007A9200003F01BFE00950A200190029512
:100B2000039504950595069500226946200003F07B
:100B30007BFA0120C043216808610FB030BD00007E
:100B4000583D0020F0B581B007001F4879024418D5
:100B50002500B835E5666348002F00D128302860AD
:100B6000102068600026AE608020E8602E616E6113
:100B7000AE61C0208001E861280001F053FCE56609
:100B800018346C62002F02D100210B2001E00121FA
:100B90000A20002201F088FE01B0F0BD5249400257
:100BA00008180521FF22CE328154F6214900415810
:100BB000002900D1704700B581B00021B13A8018FA
:100BC00003F014F901B000BD940300201C000140A3
:100BD000F0B581B0444940020E180125FF20CE3007
:100BE00035541F30305800283FD08E204000371831
:100BF00038680224E443C1682140C160002200211A
:100C000003F074FD38680168A94301603868C16861
:100C1000364A0A40C260FF2056303554C01C351891
:100C20002868C1680C40C4600022002103F05EFD0A
:100C300028682749884208D02349884205D0264998
:100C4000884202D02549884203D1416C284A0A4093
:100C50004264416C264A0A4042642868C168012205
:100C60009143C16000202968486201B0F0BD0000D6
:100C70000038004070B51C4942028C18CA21490056
:100C80006518583966183560BF49002800D12831E9
:100C9000296000206860A8608021E96080312961B6
:100CA0006861A8614801E861280001F0BBFB35607C
:100CB0008E2040002018686270BD0000C027090027
:100CC000003001400020004000400140000400408E
:100CD000002C0140001BB7000044014000480140C7
:100CE00040420F003000024094030020FFFDFFFF50
:100CF000FF7FFFFFF6B589B00600A44871024418D3
:100D0000FF20CE30205C042841D0656828001030D8
:100D1000049000276946CF810F737021280003F0EB
:100D200069FDB4221021280003F036FD03A80290CB
:100D30000498801E008801906020009003AB9B1CEB
:100D4000049A0A9989B2099803F058FD6846C08947
:100D5000803080B26946097B002911D13918090910
:100D60004A00AA180901411A89B2138803258D4047
:100D70001D4315800F2901D101215180C01C00E0C5
:100D8000401C80B2FF21CE31615C042901D10220D8
:100D9000F7E00021221D927C012A07D0022A1FD1F0
:100DA000002E01D1052104E0042102E0002E00D034
:100DB00002219D4A89005118496A9C4A91420FD3E9
:100DC0006A461770C01D8110490F0818C010694687
:100DD00048803000FFF7FCFE002E05D10B2004E018
:100DE000012069460870CAE00A2001F077FD03205F
:100DF000FF21CE316054002E01D1002100E00421FA
:100E000020007C3002F029FF201D817C300003F09F
:100E1000C7FD201D817C3000FFF76CFAFC204000EC
:100E2000205C012800D094E00597069703200790E6
:100E3000002E00D07EE08B4DA88804900290286898
:100E4000894902680A400260426A884B1340436243
:100E500082680A4082604268854B13404360C268E2
:100E60000A40C260834A13681B071B0F019390233B
:100E7000DB05984214D0804B984201D101270FE046
:100E80007E4B984201D102270AE07D4B984201D166
:100E9000032705E07B4B984201D1042700E005279A
:100EA0000198B84212D110680F2398431060029A3B
:100EB000D043754A1368034013605368034053607E
:100EC000936803409360D3681840D0602868059AFF
:100ED000022A01D0122A06D1426A644B1340089AB2
:100EE00012041A43426202680A4004AB1B799B0752
:100EF0009B0913430360059A012A05D0022A03D0F7
:100F0000112A01D0122A0FD182680A40079B1B06C2
:100F1000134383604368564A1A40059B1B02802591
:100F20006D012B4013434360C2681140069A1206BC
:100F30000A43C260012E0CD1544801880491494DE6
:100F40000722E86B00F078FD072204A9E86B00F0A7
:100F5000E5FD61681834226850684D4B03405360CA
:100F6000684643880C32606D01F012FB206801680E
:100F700040220A430260416802220A4342606846F6
:100F800000780BB0F0BD00001C000240940300206C
:100F9000F0B581B006003F48710244180825FF20D3
:100FA000CE302554271DB4227021386803F0F4FB9D
:100FB000300000F03DF83000FFF70AFE002E01D1AE
:100FC0000B2000E00A2001F089FCFF20CE302554E0
:100FD000002E01D1002100E0042120007C3002F02D
:100FE0003CFEB97C3000FFF785F9B97C300003F096
:100FF000D7FC702239681834200001F063FF00200C
:1010000001B0F0BD30B581B0224940020C18250076
:10101000B8350020A861280001F004FAE56618340C
:101020006C6201B030BD0000583D0020EE020000AF
:1010300070B504001748610245182E00B83620200C
:10104000B061300001F0EEF9EE6618357562002CE3
:1010500002D100210B2001E001210A20002201F031
:1010600023FC70BDA0070020FFFFFFFCFFFFF0FF87
:10107000FFEFFFFF14000140000400480008004893
:10108000000C00480010004800040140E007002068
:10109000FFBFFFFF94030020F0B583B00400B14E02
:1010A00060023518A869C021490182680A40FCD154
:1010B00081680906FCD40168B54A0A400260A97D2E
:1010C000200003F0BFFCA87D002803D0022815D023
:1010D00027D336E0002C02D18021C90100E0102185
:1010E000AC4800F040FE002C02D10421AA4802E0E6
:1010F00040219020C00500F036FE22E0002C02D1F5
:101100000222A54902E006229021C90503205200CF
:101110009040C243086810400860C8680240CA6036
:101120000FE0002C01D10E2300E0042399490A6846
:1011300003205B009840C3431A400A60C86803401C
:10114000CB60F62040002818007B012800D0D9E0B1
:10115000002C61D191483018818800910168904A33
:101160000B6813400B604B6A8E4F1F404F628B68B9
:1011700013408B604B688C4F1F404F60CB6813400F
:10118000CB608A4B9F683F073F0F01979027FF0571
:10119000B94201D1002114E07E4FB94201D10121B1
:1011A0000FE07D4FB94201D102210AE0804FB942E0
:1011B00001D1032105E07F4FB94201D1042100E0B4
:1011C0000521019F8F4212D199680F27B943996079
:1011D000009BD943784B1F680F401F605F680F402A
:1011E0005F609F680F409F60DF683940D960016889
:1011F0000B68134080277F041F430F608B68D74321
:101200001F438F604B68684F1F404F60CB681A4088
:10121000CA60818800688161012C73D167483018E9
:101220000090008801905D483018C26B64491368D3
:101230000B401360136A1B011B09136293680B4078
:10124000936053688026B3435360D3680B40D360E8
:10125000564B1F68F02636023E409027FF05BA42E3
:1012600001D1002214E04B4FBA4201D101220FE01C
:10127000494FBA4201D102220AE04D4FBA4201D190
:10128000032205E04B4FBA4201D1042200E00522BF
:101290001203964212D11A684A4E16401E60019BF4
:1012A000DA43454B1E6816401E605E6816405E605D
:1012B0009E6816409E60DE683240DA60C26B13683A
:1012C0000B408026F6011E43166093680B40CE4308
:1012D0001E43966053688026B3435360D368194019
:1012E000D16000990988C06B8161042128007C309D
:1012F00002F0D8FC2800B83001F0B4F9002C05D178
:101300000B2004E0002CF0D10021EFE70A2001F0CF
:10131000ECFAFF20CE302E18307808280AD10020B1
:101320003070F620400028188268100002D0052195
:101330002000904705203070F620400028580028F3
:1013400005D000218E204000281802F04FFDF62025
:10135000400028184168080001D02000884703B0E9
:10136000F0BD000094030020174940020818EA214C
:10137000490041180422FF23CE33C25400200860E4
:101380000872C860086148600875487570470000B9
:10139000BFFF000000040048000800480C040000E3
:1013A000FFFFFFFCFFFFF0FFFFEFFFFF0C0001401E
:1013B000000C004800100048000401404C040000EC
:1013C000FF3FFFFFFF0FFFFF94030020F0B58BB03E
:1013D0000068BE49884201D1002000E00120019050
:1013E000BB480199490240180290AC2149004618B7
:1013F000F06B4068F0670198B5490006C00B0D1806
:10140000EA2040002818E968039129000C31496856
:10141000BE4A0368D21A92B20492022A63DB1FE02A
:10142000037D9A421AD143680B2B17D30127077209
:10143000002A05D1C3689B00CB181C681C6007619B
:10144000C3689B00CB181C68A44604691700A7401A
:10145000644627431F6003695B1C036102750275C4
:101460004368049A93423ED2AC225200AA58526A70
:101470002D2A38D2039AD2181478521E1278A21A42
:10148000D21C9206D40F012262405B1C002A00D0BD
:101490005B1C4360037A002BC2D0C3689B00CB184F
:1014A0001C68A44604691700A740644627431F60D0
:1014B00003695B1C0361142B0BD100240461C36816
:1014C0005B1CC360172B02D3C46001210AE09B00A0
:1014D000CC500369052BC2D1C3689B00CB580D2BA0
:1014E000BDD1022141753068416A491D426A8A4274
:1014F000FCD3416AF06B4068491D3268526A8A42E7
:10150000FBD30299F022520089180091F16B4968CF
:10151000814204D00099497A002900D1D4E0F067D3
:1015200002988E21490040180590002102F034FDF8
:101530000298CA214900401801F05FF80024306881
:1015400044623068C16802229143C16000220021D8
:1015500003F0CCF830686E49884208D06D49884263
:1015600005D05A49884202D06B49884203D1416C68
:101570006A4A0A404264416C684A0A404264300048
:1015800002F056FA0098407A002869D1EA2040001B
:101590002818E968049129695C4A0368D21A92B252
:1015A0000392022A5CDB1FE0037D9A421AD1436852
:1015B0000B2B17D301270772002A05D1C3689B00A4
:1015C000CB181E681E600761C3689B00CB181E689D
:1015D000B44606691700B740664637431F60036983
:1015E0005B1C0361027502754368039A934237D20C
:1015F000049AD2181678521E1278B21AD21C920689
:10160000D60F012272405B1C002A00D05B1C436095
:10161000037A002BC8D0C3689B00CB181E68B44661
:1016200006691700B740664637431F6003695B1CB5
:101630000361142B0AD10461C3685B1CC360172BC0
:1016400002D3C46001210AE09B00CC500369052B42
:10165000C9D1C3689B00CB580D2BC4D10221417561
:1016600006940120079008940994002206A9059881
:1016700002F004FD0220C043C64909680861052044
:10168000FF21CE316854F62040002858002805D0AC
:1016900000218E204000281802F0A8FB0098407A14
:1016A000012811D00098C06800280DD0009800686B
:1016B000400100994968421892B202980169019864
:1016C000C0B2009BDB6898470BB0F0BD00440140FE
:1016D000940300200A00B9494302C9188A75002AF8
:1016E00000D1704700B581B0012A01D1602004E02B
:1016F000002801D1502000E04020F4228850F03131
:10170000080001F007FB01B000BD00005D03000010
:10171000002C01400040014000480140FF7FFFFFD6
:10172000F0B481B000285FD1A449B04A89188A88F2
:1017300000920D68A24B2A681A402A606A6AA14C7E
:1017400014406C62AA681A40AA60A94C6A682240D8
:101750006A60EA681A40EA60AF4A96683607360F50
:101760009027FF05BD4201D1002514E0AB4FBD42DB
:1017700001D101250FE0AA4FBD4201D102250AE0A7
:10178000A84FBD4201D1032505E0A74FBD4201D1BD
:10179000042500E00525AE4212D195680F26B54319
:1017A0009560009AD543A14A16682E401660566887
:1017B0002E40566096682E409660D6683540D560BB
:1017C0000A6815681D40802676042E4316609568C9
:1017D000DE432E43966055682C405460D468234005
:1017E000D3608A8809688A61012865D17349904865
:1017F0000818009004887D480918CD6B8D482A6828
:1018000002402A602A6A120112092A62AA6802406A
:10181000AA608023DB436A681A406A60EA68024073
:10182000EA607D4A1768F02636023E409027FF05A1
:10183000BD4201D1002514E0784FBD4201D1012500
:101840000FE0774FBD4201D102250AE0754FBD423E
:1018500001D1032505E0744FBD4201D1042500E00C
:1018600005252D03AE4211D11568A24E2E401660FB
:10187000E5436E4A14682C40146054682C40546050
:1018800094682C409460D4682540D560CA6B146875
:1018900004408025ED012543156094680440C5434C
:1018A00025439560546823405360D3681840D06046
:1018B00000980088C96B886101B0F0BC7047F0B532
:1018C00081B0002850D13D49484A8C18A28825682B
:1018D0003B492B680B402B606B6A3A4E1E406E6290
:1018E000AB680B40AB606B68414E1E406E60EB68AE
:1018F0000B40EB60804B1E683607360F9027FF05C4
:10190000BD4201D1002514E0444FBD4201D1012563
:101910000FE0434FBD4201D102250AE0414FBD42D5
:1019200001D1032505E0404FBD4201D1042500E06F
:101930000525AE4211D11D680F26B5431D60D34366
:101940003A4A15681D40156055681D4055609568F8
:101950001D409560D5682B40D360226813680B400A
:101960001360D3681940D160012810D113491F4872
:101970000C1807224030095AE06B00F05DF8E06B6C
:101980002C4902680A400260C2681140C16001B07F
:10199000F0BD0000B004002010B5040005D1574888
:1019A0000122818E006B00F054FA012C05D15348BE
:1019B00001228188006800F04CFA10BD94030020D9
:1019C000FFFFFFFCFFFFF0FF10B5040005D14B48FF
:1019D0000022818E006B00F03CFA012C05D14748B3
:1019E00000228188006800F034FA10BD0C04000069
:1019F000FFEFFFFF30B581B005000C00FFF7E8F8FE
:101A000000203F496A02891888752100280003F0E8
:101A100019F801B030BD00000C000140000400487E
:101A200000080048000C0048001000480004014075
:101A30004C040000FF3FFFFFF2B4010003235400F9
:101A40000320A040C443086820400860D0088000FC
:101A50000D180F262F6ABC465007C70E0F20B8403E
:101A6000674687432F628868204088604F6801205E
:101A7000904087434F60C8680440CC602148940878
:101A8000A4000019046803271740BA0096403440A8
:101A90009027FF05B94201D1002312E01A4FB94245
:101AA00001D101230DE0194DA94201D1022308E023
:101AB000174DA94205D0174B994201D1042300E0EC
:101AC000052393409C4211D10168B1430160009904
:101AD000C84311490A6802400A604A6802404A60E5
:101AE0008A6802408A60CA681040C86001B0F0BCD1
:101AF00070470000FF0FFFFF14000140B8070020EF
:101B00009403002008000140000400480008004839
:101B1000000C00480010004800040140F0B44B687D
:101B2000022B01D0122B0CD1D3089B00C3181C6AC6
:101B30005507ED0E0F26AE40B4430E69AE40264366
:101B40001E620668540003270323A340DD432E4092
:101B50004B681F40A740374307604B68012B05D0F7
:101B6000022B03D0112B01D0122B10D183682B40F4
:101B7000CE68A6401E438660476801260123934035
:101B80009F434B681B091E4096403E434660C26817
:101B900015408968A1402943C160F0BC704710B569
:101BA00004002068C3689343C360002202F09EFDD6
:101BB0002068016801229143016010BDF0B483B038
:101BC000002201240D68002D00D1C9E00D68012616
:101BD00096402E400296029D002D00D1BBE04D683C
:101BE000022D01D0122D18D1D508AD0045192E6A4D
:101BF00000965607F60E6F463E71009FBC466E4635
:101C000037790F26BE406746B743BC460F696E461C
:101C10003679B740664637432F62066855006F46EF
:101C20003D7103276D462D79AF40FD432E40B446EC
:101C30000E79B707BF0F6E463679B7406646374311
:101C400007604E68012E05D0022E03D0112E01D060
:101C5000122E13D186682E40B446CF686E46367970
:101C6000B740664637438760476801269640B743CA
:101C70004E683609264096403E434660C668354069
:101C80008E686F463F79BE402E43C6604D68ED00BA
:101C900061D57B4D2D682543794E356035682540EB
:101CA0000095009D774D9608B600AD1900952E68F9
:101CB00095072D0F0F27AF40BE439027FF05B84271
:101CC00001D1002714E0704FB84201D101270FE085
:101CD0006E4FB84201D102270AE06D4FB84201D1E0
:101CE000032705E06B4FB84201D1042700E0052728
:101CF000AF403743009D2F60674D2D68029FFE4324
:101D000000962E404D68ED0302D53500029E2E430D
:101D1000614D2E606E68009D35404E68B60302D559
:101D20002E00029D35435C4E7560B668009D3540BF
:101D30004E68F60202D52E00029D3543564EB56020
:101D4000F668009D35404E68B60202D52E00029D11
:101D50003543514EF560521C0D68D54000D035E733
:101D600003B0F0BC7047C2B482B0010000224A4BFD
:101D7000029800286AD002980126964006400196F3
:101D8000019800285ED003205600B040C64300965C
:101D9000086806400E60D00880000E18376ABC46FE
:101DA0005007C70E0F20B8406746874337628868E0
:101DB000009E06408E604E680120904086434E6033
:101DC000C868009E0640CE602E489608B60080196E
:101DD000009006689007070F0F20B840304090260B
:101DE000F605B14201D1002614E0274EB14201D1DF
:101DF00001260FE0254EB14201D102260AE0244E11
:101E0000B14201D1032605E0224EB14201D10426A0
:101E100000E00526BE40B04214D1009806680F20AD
:101E2000B840864300980660019EF0431E68064055
:101E30001E605E6806405E609E6806409E60DE68CA
:101E40003040D860521C0298D04094D103B0C0BC3E
:101E50007047002A01D081617047816270474269F2
:101E60004A40426170470D4A1368034000D17047F1
:101E700000B581B0106003F081F801B000BD000032
:101E80001810024008000140000400480008004803
:101E9000000C0048001000480004014014040140F8
:101EA000F0B581B004000025002C01D10120A4E090
:101EB000260040367068002804D1B06030702000E1
:101EC00003F0A8F810217068084000D090E0226864
:101ED00004209368034000D08AE07768484B3B4079
:101EE00002271F43776093689B079B0F012B05D147
:101EF0001368DB070FD4D3681B040CD4D3681827EE
:101F0000BB43A7681F43D760226813699B009B08E7
:101F100067681F4317612268D3683A4F1F40D76034
:101F2000626B012A01D0830200E000232269022AA9
:101F300001D1009000E00095226AA0698003E76962
:101F4000FF030743500338430343E0681843009BF3
:101F50000343206B40001843636A012B04D1002A1D
:101F600002D1020008031043A26AFF23C2339A423F
:101F700003D00300E06A104318432268D368034388
:101F8000D360A26B0B069A420DD0012A0BD0022A15
:101F900009D0032A07D0042A05D0052A03D0062A2F
:101FA00001D0072A0CD1226853690727BB4353612C
:101FB000226853693827E75D7F077F0F1F4357610A
:101FC0000222D24301232468E4680F4F274087424E
:101FD00005D1B56070680240134373600CE070680F
:101FE000024011437160B0681843B060012503E0FE
:101FF0007068014371600125280001B0F0BD000048
:10200000FFFEFFFF1902FEFFE7FF3F83F6B581B039
:1020100004000025002720688068400741D4402044
:10202000205C012801D102203DE0012640216654B8
:10203000E069012804D0200000F04CF9070031D1FC
:102040002000403040684D490140300208432100E3
:102050004031486020004030856040202554484889
:10206000E16B88624748E16BC8629848E16B08639E
:102070001C20216808602068416810220A434260E1
:102080002068C1680E43C660029B019A21684031F6
:10209000E06B00F07DFA2068816804220A438260C8
:1020A00000E00227380003B0F0BD70B504002068DE
:1020B0001025042102680A4002D042680A4006D175
:1020C0000822036813402FD043681A402CD0626C5A
:1020D0002A4003D1626CCB0113436364C268C023FE
:1020E0001B0113401AD1226A002A17D10268120775
:1020F00014D501228368194009D141680C23994302
:102100004160606C724901400A43626406E0606CA1
:10211000202101436164A06C0243A264200000F00E
:1021200033F80C202168086020688026016831405F
:102130000BD04068304008D0606C290301436164D3
:10214000200000F023F8206806602068016829401C
:1021500012D0416829400FD0616B012902D0C168BB
:10216000C90707D5A16C02220A43A26405602000BA
:1021700000F00DF82068056070BD0000FEF1FFFF63
:1021800089230008F923000870477047704770479B
:10219000F0B581B004000025002600954020205CA9
:1021A000012801D102208FE001204023E054226861
:1021B00093685B077CD40B6898404B686E4FBB42BA
:1021C000936A5FD018439062A06B802252059042C0
:1021D0001DD001281BD0022819D0032817D00428AD
:1021E00015D0052813D0062811D007280FD0226853
:1021F00007208B6857690740BB4208D05369834367
:102200005361226853698F683840184350610868E9
:10221000102831D0112832D0122852D180225204F5
:10222000564803681A4302600868102849D1544888
:102230000068544901F047FB8100081840000090F5
:10224000009800283DD00098401E0090009800287B
:1022500037D00098401E00900098002831D0009898
:10226000401E0090009800282BD00098401E00903F
:102270000098002825D0E6E780221204D0E78022CB
:10228000D203CDE783439362086810280AD011284F
:102290000BD0122815D180214904384802688A439E
:1022A00002600EE080210904F7E78021C903F4E70A
:1022B00021004031496820220A43210040314A6010
:1022C000012640342570300001B0F0BD072400081D
:1022D000FFFEFFFF70B582B0040000200090206870
:1022E000012581688907890F012905D101682940E5
:1022F0003FD1C16809043CD481683D4A0A402FD1CE
:102300008168294381601E4800681E4901F0DBFA9C
:1023100000900098002817D00098401E0090009868
:10232000002811D00098401E0090009800280BD083
:102330000098401E00900098002805D00098401E8C
:10234000009000980028E7D102F07AFF060020688C
:10235000006828400DD102F073FF801B0328F6D3DC
:10236000606C102101436164A06C0543A5640120E9
:1023700000E0002002B070BD0110000008270140FD
:102380006000002040420F0010B5416A4A6C5023A3
:10239000134029D1486C8022920002434A640868A5
:1023A000C268C0231B0113401AD10A6A002A17D140
:1023B0000268120714D5012283685B0709D44368B9
:1023C0000C24A3434360486C0A4B03401A434A64FD
:1023D00006E0486C202303434B64886C02438A6404
:1023E0000800FFF7D1FE10BDC96B096B884710BD0F
:1023F00017000080FFFEFFFF00B581B0406AFFF7C5
:10240000C4FE01B000BD00B581B0406A416C4022FD
:102410000A434264816C04220A438264FFF7B7FED8
:1024200001B000BD10B4002801D1012021E000213D
:102430002122825C002A01D12023C15402222123BF
:10244000C25402681368824C1C404368234384686A
:102450001C43C368234304691C43436923438469C1
:102460001C43C36923431360416301212130017080
:10247000002010BC704730B4002803D02121415CFB
:10248000022901D1012081E001680A6801239A43F1
:102490000A60002102681160026851600268916060
:1024A0000268D16003686B4A934201D102241DE0A7
:1024B000694CA34201D1202418E01434A34201D175
:1024C000540D13E01434A34202D18024A4010DE082
:1024D0001434A34202D18024A40207E01434A3429E
:1024E00002D18024A40301E08024A4045B4B1C607F
:1024F0000468944201D108241DE0574DAC4201D13B
:10250000802418E01435AC4201D1D40C13E014350A
:10251000AC4202D1802424020DE01435AC4202D139
:102520008024240307E01435AC4202D18024240423
:1025300001E0802424051C600468944201D1042237
:102540001DE01432944201D1402218E0143294422A
:1025500001D1120D13E01432944202D18022D20133
:102560000DE01432944202D18022D20207E01432EC
:10257000944202D18022D20301E08022D2041A6068
:1025800041632123C15420300170002030BC7047CA
:1025900078B42023C35C012B01D102202AE001235F
:1025A0002025435502242126845505682E689E4324
:1025B0002E60009D066875604568102D056803D182
:1025C000AA600268D16002E0A9600168CA6001687F
:1025D0000A6814430C6001680A68042414430C6000
:1025E00001680A68082414430C60006801680B4302
:1025F0000360002001B070BC7047F0B581B00400EA
:102600002068016801229143016002F019FE070071
:10261000134D012620680068304010D002F010FEF3
:10262000C01BA842F6D3606B2021014361630320E5
:1026300021216054002020342070032004E0212058
:10264000265400202034207001B0F0BD00000000AE
:102650000FC0FFFF080002401C00024004000240BF
:10266000E903000070B504008C4D296820688C4E89
:10267000B04201D108221DE08A4B984201D180224C
:1026800018E01433984201D1DA0C13E01433984265
:1026900002D1802212020DE01433984202D180222E
:1026A000120307E01433984202D18022120401E0A1
:1026B000802212050A4036D0082102680A4032D032
:1026C000026808239A4302602068B04219D0754915
:1026D000884201D1802114E01431884201D1C90C13
:1026E0000FE01431884201D119030AE01431884205
:1026F00001D1190405E01431884201D1190500E027
:102700001906696020002830C16801220A43C260AE
:1027100004212122A15400212022A1548168080013
:1027200001D02000884729682068B04201D10422E6
:102730001DE05C4B984201D1402218E014339842CE
:1027400001D11A0D13E01433984202D18022D20134
:102750000DE01433984202D18022D20207E01433F4
:10276000984202D18022D20301E08022D2040A40A2
:1027700035D0042102680A4031D00268920602D4A2
:1027800002688A4302602068B0421DD045498842F1
:1027900001D1402118E01431884201D1090D13E024
:1027A0001431884202D18021C9010DE014318842E0
:1027B00002D18021C90207E01431884202D1802170
:1027C000C90301E08021C9046960112021216054FE
:1027D000200028304168080001D02000884729687F
:1027E0002068B04201D102221DE02E4B984201D157
:1027F000202218E01433984201D15A0D13E014330B
:10280000984202D1802292010DE01433984202D105
:102810008022920207E01433984202D18022920370
:1028200001E0802292040A4037D0022102680A4067
:1028300033D020220368134002D103688B43036026
:102840002068B04219D01749884201D1202114E0F4
:102850001431884201D1490D0FE01431884201D171
:1028600011020AE01431884201D1110305E014314C
:10287000884201D1110400E0110569602000283070
:10288000C168C16001212122A15400212022A1544C
:102890000168080001D02000884770BD0000024098
:1028A000080002401C00024010B48207D30EFF242F
:1028B0009C40E2438907090E9940030004D519485A
:1028C0001B071B0F083B00E017489B089B00C01824
:1028D00003681A401143016010BC70470121C00613
:1028E000C00E81401148016070470121C006C00E32
:1028F00081400F4801607047401E80214904884292
:1029000001D3012070470B4948600B48026812024E
:10291000120AC0231B0613430360002088600722AD
:102920000A6070471CED00E000E400E000E100E018
:1029300080E100E010E000E020ED00E0F1B582B0C1
:1029400000240027054640352878012801D10220BF
:102950003DE001262E700298006881688907890F82
:1029600001290BD10168314002D1C168090405D5A4
:102970006868202101436960012726E06968154ADB
:102980000A400221114369608168802212060A43CD
:10299000826002F055FC0090029800688068002870
:1029A0000ED502F04DFC0099401A0328F4D3686854
:1029B000022188431021014369602C70012006E048
:1029C00068680221884306436E602C70380003B0AB
:1029D000F0BD00BFFFFEFFFF10B504000DD0607F0B
:1029E000002803D12077200002F069FB02206077E5
:1029F000200002F02DFC002801D0012010BD6079DC
:102A0000002802D10020C04300E02069216808614D
:102A1000206881686022914362690A43826020686D
:102A2000816880229143A2690A4382600120607715
:102A3000002010BDF0B581B0040000250023002067
:102A4000267F012E01D1022035E0012626770227BC
:102A50006777276A012F25D02BD3032F01D025D3E9
:102A600027E0002A1BD098000858276838605B1CB4
:102A7000934214D298000858276838605B1C934230
:102A80000DD298000858276838605B1C934206D224
:102A900098000858276838605B1C9342E3D320688D
:102AA000006806E0200000F04FF802E0200000F08F
:102AB000C1F86677257701B0F0BDF0B581B00400AC
:102AC00000230020257F012D01D102203AE00125BD
:102AD0002577022666772668B7682F43B760266A8F
:102AE000012E25D02BD3032E01D025D327E0002A99
:102AF0001BD098000858266830605B1C934214D2A3
:102B000098000858266830605B1C93420DD29800EC
:102B10000858266830605B1C934206D2980008581B
:102B2000266830605B1C9342E3D32068006806E0AF
:102B3000200000F009F802E0200000F07BF8657743
:102B40000021217701B0F0BDF4B402000023009809
:102B5000840848D00D00A607B60F10D028780706C5
:102B6000687800043843AF783F020743E878384379
:102B7000176838605B1C761E2D1D002EEED1A40850
:102B800031D0166828780706687800043843AF7893
:102B90003F020743E87838433060287907066879B0
:102BA00000043843AF793F020743E8793843306087
:102BB000287A0706687A00043843AF7A3F02074351
:102BC000E87A38433060287B0706687B0004384386
:102BD000AF7B3F020743E87B384330601B1D641E18
:102BE0001035002CCDD100988007800F1DD0012812
:102BF00004D19800085C1168087016E0022808D11A
:102C00009800081801780902407801431068018093
:102C10000BE0032809D1980008181668017809020A
:102C2000437819433180807830701068006801B0B3
:102C3000F0BC7047F1B4002355082CD00800AC0755
:102C4000A40F0BD00688360447883E43009F3F6898
:102C50003E605B1C641E001D002CF3D1AC081AD032
:102C6000009D2D680688360447883E432E6086887E
:102C70003604C7883E432E600689360447893E43A2
:102C80002E6086893604C7893E432E601B1D641E54
:102C90001030002CE4D100980568D00702D59800C8
:102CA000085A2880286801B0F0BC704710B582B07F
:102CB00014480068144900F006FE401E134C8021A1
:102CC000C90521600121124A13680B431360126881
:102CD0001140009100990921E160606000202061AD
:102CE000A060200000F046FE002203210F20FFF725
:102CF000DBFD0F20FFF7F2FD200000F08FFE02B099
:102D000010BD00BF60000020409C0000F03D00208E
:102D10001C100240F0B583B0040000270025009786
:102D2000002C03D024304068C00601D501253AE0CC
:102D300001262D4801683143016000683040019050
:102D40000198200002F07FF920002430406800281C
:102D500001D124202754022021002431486020681A
:102D60002249884201D110200090891E0868204A1B
:102D7000009B9A4090436268A3681343E2681A4339
:102D80002369134367691F43A2693A43009B9A4032
:102D900002430A60E069002803D00868F205024394
:102DA0000A6024346660280003B0F0BD30B401002E
:102DB00000220020002914D010238C6A1C4010D15E
:102DC0008C6A012C0DD10C68084DAC4200D1102248
:102DD000AB1E1C680125954025431D6002228A62B6
:102DE00000E0012030BC7047181002401E00014076
:102DF0007E3F0000F0B581B0040001D101205BE00E
:102E000025005C3500266878002803D12E7020004C
:102E100002F01FF90220687021680A6840239A4373
:102E20000A60E268254B9A4205D30021F0273F0152
:102E3000BA4204D104E0C1025F1EBA4200D0A662C9
:102E4000276B002F03D19A4200D2012020636068D3
:102E5000A26802432069104362690243A06980238B
:102E60009B0018401043E2690243206A1043A26AA3
:102E7000024320680260206B022804D120680268A7
:102E80009B0013430360A069000C04221040626A97
:102E90000243606B1043E2680243114320684160C3
:102EA000E06A216808612068C169054A0A40C26178
:102EB0006E6001206870002001B0F0BD01070000C5
:102EC000FFF70000F0B581B00400002700252600C0
:102ED0004436307E012801D1022070E00120307696
:102EE000737E012B01D0022567E0002901D0002A62
:102EF00001D1012561E003207076F761A163A2870B
:102F0000E287276437807780A068802109028842A1
:102F100005D1206801688022D2010A430260802026
:102F20008001A16A814208D121680A68264B1340BA
:102F30000B6021680A681043086024483169C86240
:102F400023483169886223483169086321681D4834
:102F50004A6802404A60E1681F4A914219D23169C9
:102F600049698022D200914213D121683E22A25C9D
:102F7000D20705D44A6810404860E08F400807E057
:102F800048688022D20102434A60E08F4008401C1A
:102F9000E087E38F22680C32A16B3069FFF7F8FA03
:102FA0002068402102680A4002D102681143016092
:102FB0002068416802220A4342603776280001B047
:102FC000F0BD0000FFBFFFFFFFDF0000CD300008B5
:102FD000E32F0008DB30000801070000704770474E
:102FE0007047F0B581B0446A202500680068284029
:102FF00065D12068416802229143416002F020F9C6
:103000000700C026760120688068304005D002F0B5
:1030100017F9C01B3228F6D30CE002F011F90700B3
:10302000802620688068304033D002F009F9C01B48
:103030003228F6D320684168E022914341606068FD
:103040008221490088420BD1A068A902884202D09F
:103050004909884204D120680168402291430160F7
:103060002802A16A814208D121680A68164B1340E0
:103070000B6021680A681043086020005C30012161
:1030800041700021017020005C304168294341609B
:103090004560A068002805D12068C168009180685B
:1030A000009000980020E08720005C3001214170F2
:1030B0004068002803D02000FFF792FF02E02000C4
:1030C000FFF78CFF01B0F0BDFFDF000000B581B05D
:1030D000406AFFF784FF01B000BD00B581B0406ACF
:1030E00001684A6803239A434A60016E10220A432A
:1030F000026601215D228154FFF772FF01B000BD1D
:10310000F0B581B00700824C3878C00767D50C2035
:103110006168014004290BD06168084008280FD17C
:103120006068C0214902014080204002814207D1ED
:103130002068800353D57868002850D10120E8E149
:103140002068744901402160206873490140216072
:1031500002F076F80500714E2068800305D502F074
:103160006FF8401BB042F7D3D0E17868012804D152
:10317000206880214902014315E0002801D1206820
:103180000BE00528206808D18021C9020143216095
:10319000206880214902014305E05E490140216029
:1031A00020685D4901402160786800280BD002F05A
:1031B00047F805002068800311D402F041F8401B55
:1031C000B042F7D3A2E102F03BF80500206880038B
:1031D00005D502F035F8401BB042F7D396E13878B8
:1031E00080071CD50C20616801400BD06168084045
:1031F00008282AD16068C0214902014080200002CD
:10320000814222D12068800702D5F868012895D133
:103210002068F82188433969C90001432160387862
:10322000000743D5386A0028606A30D00121014385
:10323000616202F005F80500606A800736D401F08B
:10324000FFFF401B6528F7D360E1F868002820687D
:103250000ED001210143216001F0F2FF050020683A
:103260008007D5D401F0ECFF401B6528F7D34DE172
:1032700001218843206001F0E3FF050020688007FA
:10328000CDD501F0DDFF401B6528F7D33EE10121DC
:103290008843606201F0D4FF0500606A800705D5AD
:1032A00001F0CEFF401B6528F7D32FE138784007A7
:1032B0006AD580204005E1690143E161E169084088
:1032C00000900098944E3068A10D0143316001F0E8
:1032D000B7FF05003068C00505D401F0B1FF401B01
:1032E0006528F7D312E1206A012188432062206A11
:1032F00004218843206201F0A3FF0500074E206AE5
:1033000080070DD501F09CFF401BB042F7D3FDE0D4
:1033100000100240FFFFFEFFFFFFFBFF89130000CC
:10332000B868012809D0002801D1206A0AE00528E0
:10333000206A07D1042101432162206A012101434F
:10334000216206E0012188432062206A042188432B
:103350002062B86800280BD001F072FF0500206AD7
:10336000800711D401F06CFF401BB042F7D3CDE0D1
:1033700001F066FF0500206A800705D501F060FFB7
:10338000401BB042F7D3C1E03878C0061DD578693C
:10339000012851D1606B042101436163606B0121FD
:1033A0000143616301F04CFF0500606B800705D4A9
:1033B00001F046FF401B6528F7D3A7E0606BF821BA
:1033C0008843B969C900014361633878800615D51F
:1033D0000C20616801400C2909D061680840082868
:1033E00046D1C020400261680140814240D1606BFB
:1033F000C00303D5F869012800D09FE6786A002849
:1034000000D185E061680C220A40082A00D195E6C7
:103410008026B6044149022820686AD10140216013
:1034200001F00EFF05002068304044D001F008FF95
:10343000401B6528F7D369E00421C9438842606BCB
:1034400003D1042188436063B8E704210143616329
:10345000606B01218843606301F0F2FE0500606B40
:103460008007B2D501F0ECFE401B6528F7D34DE094
:1034700080267602F8690028606B0DD030436063C7
:1034800001F0DEFE0500606B3040B7D101F0D8FEE0
:10349000401B6528F7D339E0A2490140616301F080
:1034A000CFFE0500606B3040A8D001F0C9FE401B84
:1034B0006528F7D32AE0E06A0F218843396B01437E
:1034C000E162606898490140F86A0843B96A0143BB
:1034D0006160206871080143216001F0B1FE0500C0
:1034E0002068304014D101F0ABFE401B6528F7D3B3
:1034F0000CE00140216001F0A3FE0500206830408F
:1035000006D001F09DFE401B6528F7D3032000E0A4
:10351000002001B0F0BD000000700040FFFFFFFE82
:10352000F3B581B00127814800683840884274D2E1
:103530007E480068B843029901437C4801600068F6
:1035400038400299884200D0D7E0022001990968EA
:10355000014007D0924C6168F0229143019A926831
:103560000A436260019909680F4000D1C7E00199E0
:1035700049688B4C012902D12068800308E00229A8
:1035800002D12068800103E0032903D1606BC003EE
:1035900004D4B2E02268104000D1AEE0606803229B
:1035A00090430143616001F04BFE050001984068C3
:1035B0000C2601280BD160683040042800D19EE021
:1035C00001F03EFE401B77498842F4D387E0022891
:1035D0000BD160683040082800D190E001F030FE47
:1035E000401B70498842F4D379E003280BD160680E
:1035F00030400C2800D182E001F022FE401B6949D6
:103600008842F4D36BE06068304078D001F018FE57
:10361000401B64498842F6D361E0022001990968A1
:10362000014007D05E4C6168F0229143019A926894
:103630000A43626001990968394052D0019949688A
:10364000574C012902D12068800308E0022902D1E9
:103650002068800103E0032903D1606BC00303D419
:103660004BE02268104048D0606803229043014339
:10367000616001F0E5FD0500019840680C26012815
:103680000AD16068304004282BD001F0D9FD401BDE
:1036900044498842F5D322E002280AD160683040CC
:1036A00008281ED001F0CCFD401B3E498842F5D3CE
:1036B00015E003280AD1606830400C2811D001F0D1
:1036C000BFFD401B37498842F5D308E060683040B1
:1036D00007D001F0B5FD401B32498842F6D30320E4
:1036E0001DE012480068B843029901430F48016089
:1036F000006807400298874201D001200FE001983E
:103700000078400707D5264C606851490140019870
:10371000C06808436060032001F07BFD002003B017
:10372000F0BD0000FFFFFEFFFF7FC2FF0020024050
:1037300030B589B004A800BF4AA1102201F0D0FD25
:10374000684600BF4BA1102201F0CAFD414908683C
:103750000C220240082A02D00C2A1BD01CE00F22A7
:1037600004AB840C14401C5D6B46896A0A40995C6A
:10377000C02252021300034080256D02AB4204D0E8
:103780001040904201D1344800E0344800F09BF8EA
:10379000604302E0304800E0304809B030BD00002E
:1037A000001002408913000070B588B004A800BF63
:1037B0002CA1102201F094FD684600BF2DA110221B
:1037C00001F08EFD234C20680C210140082903D014
:1037D0000C291CD120481BE00F2104AA830C0B40AC
:1037E000D55C6A46A36A1940515CC022520213009C
:1037F000034080267602B34204D01040904201D1AB
:10380000154800E0154800F05EF8684300E01348F2
:103810000F2100BF1BA223681B091940515CC8403F
:103820000F49086008B070BD00B581B0FFF780FF98
:1038300014A1084A13681B061B0FCB5CD840084B29
:10384000186012685205520F895CC84001B000BD73
:10385000FFF8FFFF04100240006CDC0200127A0047
:103860006000002002030405060708090A0B0C0D7E
:103870000E0F10100102030405060708090A0B0CBD
:103880000D0E0F10000000000102030401020304EA
:1038900006070809F446002804D4494200F013F84A
:1038A000404260474042002905D45FD000F00BF849
:1038B000404249426047494200F005F849426047AA
:1038C00003460B43E6D40022030A8B420BD20309C2
:1038D0008B4219D243088B422ED2411A00D20146A4
:1038E000524110467047FF2209023FD012068B4218
:1038F00005D3121209028B4201D3121209020309E5
:103900008B4219D300E0090AC3098B4201D3CB01D2
:10391000C01A524183098B4201D38B01C01A524114
:1039200043098B4201D34B01C01A524103098B4218
:1039300001D30B01C01A5241C3088B4201D3CB0003
:10394000C01A524183088B4201D38B00C01A5241E6
:1039500043088B4201D34B00C01A5241884200D326
:10396000401A5241CFD201461046704708B501F0C7
:10397000D1FC08BD30B581B0050001D101204BE07C
:103980002C0038346078002803D12070280001F022
:10399000A2FB02206070281D29680B682E4A914204
:1039A00006D08025ED05A94202D0564DA9420AD184
:1039B0007025AB431D0043682B43914212D08025F4
:1039C000ED05A9420ED04F4DA9420BD04E4DA94254
:1039D00008D04E4DA94205D04D4DA94202D04F4DC1
:1039E000A94203D14B4D1D40C3682B430B60836834
:1039F000CB6203688B62914208D0444A914205D061
:103A0000434A914202D0454A914201D1006908637C
:103A1000012048616070002001B030BD00680121C4
:103A2000C2680A43C2600268114301600020704707
:103A30000068C16801229143C160016A384A0A40A6
:103A400007D1016A374A0A4003D101680122914334
:103A50000160002070470000002C014030B581B0AB
:103A6000050001D101204BE02C003834607800289B
:103A700003D12070280000F04FF802206070281D4C
:103A800029680B68464A914206D08025ED05A94277
:103A900002D01C4DA9420AD17025AB431D004368DA
:103AA0002B43914212D08025ED05A9420ED0154D31
:103AB000A9420BD0144DA94208D0144DA94205D0FB
:103AC000134DA94202D0154DA94203D1114D1D40FD
:103AD000C3682B430B608368CB6203688B6291429F
:103AE00008D00A4A914205D0094A914202D00B4AB5
:103AF000914201D100690863012048616070002093
:103B000001B030BD000400400020004000400140F2
:103B100000440140FFFCFFFF7047000000480140E7
:103B2000111100004404000010B40A0006D004295A
:103B300008D008290AD00C290CD010E00268D368FC
:103B400002240AE00268D368042406E00268D3680D
:103B5000082402E00268D36810241C43D460026881
:103B6000012001238B40116A99431162116A0B43B2
:103B700013620B498A4208D00A498A4205D00A4991
:103B80008A4202D009498A4203D1516CC3030B43D4
:103B90005364116808431060002010BC7047000097
:103BA000002C014000400140004401400048014019
:103BB00030B581B0050001D101204BE02C00383434
:103BC0006078002803D12070280000F045F802201A
:103BD0006070281D29680B68504A914206D08025E4
:103BE000ED05A94202D04E4DA9420AD17025AB4342
:103BF0001D0043682B43914212D08025ED05A94258
:103C00000ED0474DA9420BD0464DA94208D0234DB6
:103C1000A94205D0224DA94202D03D4DA94203D16F
:103C2000414D1D40C3682B430B608368CB62036822
:103C30008B62914208D0194A914205D0184A9142AC
:103C400002D0334A914201D10069086301204861E2
:103C50006070002001B030BD704700680122012370
:103C60008B40016A99430162016A0B4303622B494D
:103C7000884208D00949884205D00949884202D0C3
:103C80002349884203D1416CD3030B434364016849
:103C90000A4302600020704700000000004001401D
:103CA0000044014030B4020014680123256A012059
:103CB000884085432562206A20621068174988423F
:103CC00008D01A49884205D01949884202D01049C3
:103CD00088420BD1016A0F4C0C4007D1016A154C88
:103CE0000C4003D1416C0C4C0C4044641068016AD8
:103CF000084C0C4006D1016A0E4C0C4002D1016800
:103D00009943016039321370002030BC70470000C5
:103D10000048014011110000FF7FFFFF002C01400F
:103D20000004004000200040FFFCFFFF0040014075
:103D3000004401404404000030B581B0050001D1C9
:103D400001204BE02C0038346078002803D120702B
:103D5000280000F045F802206070281D29680B68D3
:103D6000524A914206D08025ED05A94202D0874DE6
:103D7000A9420AD17025AB431D0043682B439142F1
:103D800012D08025ED05A9420ED0804DA9420BD05E
:103D90007F4DA94208D0134DA94205D0124DA9422A
:103DA00002D0984DA94203D17A4D1D40C3682B43E0
:103DB0000B608368CB6203688B62914208D0094A2A
:103DC000914205D0084A914202D08E4A914201D1D7
:103DD00000690863012048616070002001B030BDB7
:103DE00070470000004001400044014010B40A0048
:103DF00006D0042908D008290AD00C290CD010E0DC
:103E00000268D36802240AE00268D368042406E04A
:103E10000268D368082402E00268D36810241C43B7
:103E2000D4600268012001238B40116A994311621A
:103E3000116A0B431362116808431060002010BC24
:103E4000704710B40A0006D0042908D008290AD007
:103E50000C290CD010E00268D36802240AE0026842
:103E6000D368042406E00268D368082402E00268EC
:103E7000D3681024A343D3600268106A01238B40E7
:103E800098431062106A1062106A5F49014007D1BE
:103E9000106A0549014003D1106801218843106070
:103EA000002010BC7047000044040000002C0140BA
:103EB00030B581B004000D003920205C022863D0A9
:103EC0003920205C012806D1002A01D1002B5BD1CA
:103ED000022039216054280006D0042D14D0082D6A
:103EE00022D00C2D30D040E04848216A88624848F2
:103EF000216A086321683431206AFEF749FB206893
:103F0000C168802292002EE04048616A8862404881
:103F1000616A086321683831606AFEF739FB2068FE
:103F2000C1688022D2001EE03848A16A8862384801
:103F3000A16A086321683C31A06AFEF729FB20686A
:103F4000C168802212010EE03048E16A8862304880
:103F5000E16A086321684031E06AFEF719FB2068D6
:103F6000C168802252010A43C260216801200122F7
:103F7000AA400B6A93430B620B6A1A430A622168D8
:103F80000A6810430860002001B030BD0004004002
:103F900000200040FFFCFFFF30B40200080006D004
:103FA000042908D008290AD00C290CD010E0106888
:103FB000C368184C0AE01068C368174C06E0106824
:103FC000C368164C02E01068C368154C1C40C460FE
:103FD00014680123256A0120884085432562206AF0
:103FE00020621068016A084C0C4006D1016A0D4C31
:103FF0000C4002D1016899430160393213700020EE
:1040000030BC70470048014011110000CB4400084B
:10401000B7440008FFFDFFFFFFFBFFFFFFF7FFFFB7
:10402000FFEFFFFF4404000030B581B004003834D6
:104030002378012B01D102201EE0012525700223E7
:104040006370002A06D0042A08D0082A0AD00C2A55
:104050000CD00EE0006800F05BFA0AE0006800F0A7
:1040600093FA06E0006800F0C4FA02E0006800F08D
:10407000F5FA65700020207001B030BDF0B482B058
:104080003823C35C012B01D10220CBE0012338246B
:1040900003550223040038346370002A38D1CA68FB
:1040A00001924A6800920A6803681C6A0125AC43C1
:1040B0001C621C00183426681D6A8F4FBB420BD04F
:1040C0008027FF05BB4207D08C4FBB4204D08C4FEA
:1040D000BB4201D0012702E00327BE43009F3743C4
:1040E000F026B743BC46019E3701F0263E406746A6
:1040F0003E4326600A24A54314402C431C620268F8
:1041000093690C24A343936102689369896829E049
:10411000042A2AD1CA6800924B680A6804681834D5
:10412000A5681026B543A5602768A568754E3E4072
:104130001F023743744B3B40009E3603F0273F027B
:1041400037401F432760A0239D43120113402B4398
:10415000A360026893696D4C1C4094610268936986
:10416000896809021943916154E0082A26D1CB6875
:104170004A6800920A6805681C356C68644E2640DF
:104180006E602E686C680327BE43009F3743F0269D
:10419000B7431B011E403E432E605E4B234012027C
:1041A000A024240114401C436C600268D3690C24D1
:1041B000A343D3610268D369896829E0CA684B6860
:1041C0000C6805681C356E68534F37406F602E6869
:1041D0006F6800974B4F37401E023E434A4B3340B7
:1041E0001203F026360216401E432E60009A4B4BF7
:1041F00013402203A024240214401C436C60026874
:10420000D369424C1C40D4610268D36989680902B1
:104210001943D16101210200383251700021383038
:104220000170002002B0F0BC7047F0B581B004000E
:104230000D00270038373878012801D1022058E0D6
:1042400001263E7002207870002A06D0042A15D07C
:10425000082A27D00C2A36D048E0206800F058F908
:104260002068816908220A438261206881690422EA
:1042700091438161206881692A6910E0206800F01B
:1042800083F920688169F2020A43826120688169AA
:10429000234A0A408261206881692A6912020A431E
:1042A000826123E0206800F0A4F92068C169082237
:1042B0000A43C2612068C16904229143C161206838
:1042C000C1692A6910E0206800F0C8F92068C16956
:1042D000F2020A43C2612068C169114A0A40C26100
:1042E0002068C1692A6912020A43C2617E700020F7
:1042F000387001B0F0BD0000002C01400004004007
:1043000000400140FFFCFFFFFF0FFFFFFFF3FFFF37
:10431000FFFEFFFFFFF5FFFFFFEFFFFFFF5FFFFF68
:10432000FFFBFFFFF0B43822825C012A01D102209A
:10433000B7E00122382402550223040038346370A8
:1043400003689C68594D25409D600B68002B00D187
:1043500087E0102B00D18AE0202B00D18DE0302B9C
:1043600000D190E0402B64D0502B30D0602B46D051
:10437000702B0CD01403A34203D05403A34216D0D5
:1043800088E001688B680724A3438B6082E0CB68D8
:104390004C688D6801688E68434F37403D432C431D
:1043A0001B0223438B6001688B68772470E0CB6825
:1043B0004C688D6801688E683B4F37403D432C4305
:1043C0001B0223438B6001688B68940360E0CB6819
:1043D0004C68016818318D688E6896438E600E684F
:1043E000F027BE431B0133430B600A239D432C433C
:1043F0008C6001688B687024A343572448E0CB6825
:104400004C68016818318D681026B5438D600F68BF
:104410008D683E4E3E401B0333430B60A0239D43FB
:1044200023012B438B6001688B687024A3436724AE
:104430002EE0CB684C68016818318D688E68964311
:104440008E600E68F027BE431B0133430B600A23C6
:104450009D432C438C6001688B687024A3434724E0
:1044600016E001688B687024A343072410E00168FC
:104470008B687024A34317240AE001688B687024BA
:10448000A343272404E001688B687024A3433724E6
:104490001C438C60010038314A70002138300170B3
:1044A0000020F0BC70470000FF00FFFF8800FFFF06
:1044B00070477047704700B581B0406A01213922CA
:1044C0008154FFF7F7FF01B000BD10B50100486A45
:1044D00001223923C25404001834A368994201D13F
:1044E00022700EE0E268914201D1022108E02269C7
:1044F000914201D1042103E06269914201D1082176
:104500002170FFF7D6FF0020207010BDFF0FFFFFC6
:1045100070B4026A01239A430262046A42688569A0
:1045200073239D430B682B430225AC438D682543C1
:10453000494CA04208D05E4EB04205D05D4EB0421C
:1045400002D05E4EB0420ED10826B5432E00CD6893
:1045500035430426B543A04208D0554CA04205D0AF
:10456000544CA04202D0554CA04205D1524C1440AC
:104570004E6926438A6932434260836149684163D8
:10458000056270BC7047000070B4026A10239A4341
:104590000262026A43688469494D25400C6824021E
:1045A0002C432025AA438D682D0115432A4A9042A9
:1045B00008D1802295432E00CA6815013543402258
:1045C000954308E03A4A904205D03A4A904202D0D8
:1045D0003A4A904206D13B4A1A404B698E691E43C3
:1045E000B30013434360846149688163056270BC12
:1045F000704770B4026A344B13400362046A426825
:10460000C56973239D430B682B43304D25408C684F
:1046100024022C43104DA84207D12D4D2540CC68D3
:1046200026022E432B4C344008E0214DA84205D0F1
:10463000204DA84202D0214DA84206D1264D15405A
:104640004A698E69164332012A434260C361496850
:10465000C163046270BC7047002C014030B4026A30
:104660001E4B13400362036A4268C469144D25401F
:104670000C6824022C431A4D1D408B681B032B43EE
:10468000184DA84208D00A4DA84205D0094DA842AD
:1046900002D00A4DA84204D1134D15404A69920137
:1046A0002A434260C46149680164036230BC7047B8
:1046B0000040014000440140FFFCFFFF0048014072
:1046C000FF8CFFFFFFF3FFFFFFFEFFFFFFFDFFFF7C
:1046D000FFF7FFFFFFFBFFFFFFCFFFFFFFEFFFFF36
:1046E000FFDFFFFF002C0140FFBFFFFF10B4036A94
:1046F00001248C40A3430362036A8A401A43026286
:1047000010BC704770B4020038321378012B01D10D
:1047100002201AE0012313700224547004686568B3
:104720007026B5436560046865680E682E43666050
:104730000468A5688026B543A56000688468496858
:104740002143816053700020107070BC704730B4FA
:10475000020038321378012B01D1022015E0012329
:104760001370022454700C684D6825438C682C43E8
:10477000CD6825430C692C434D692543896929433C
:104780000068416453700020107030BC70470268AC
:10479000531C0360117070471206130A1A43130C5E
:1047A0001A4300BF094205D083070BD00270401C9A
:1047B000491EF9D1704700001206130A1A43130C60
:1047C0001A4300BF130030B414001500103902D38F
:1047D00010393CC0FCD2490700D30CC000D504C03E
:1047E000890002D30280801C002900D5027030BCF1
:1047F000704700000022D5E70022E3E7F0B481B063
:104800000EB483B0002813D0002A11D069468989DC
:1048100000290DD069468989C91D8A10520F511887
:104820004903090C01910B994908019A914201DA57
:104830000120A0E0694689894907090F4F4A0B000A
:1048400004D001238B409A1892B200E0102102920A
:10485000037800226C46228049A20C9CE40B2401C0
:1048600014191D072D0F645D6D462C706C4624785D
:10487000E409240114191B09E35C6C4663706B4660
:104880001B88049C2380019B022B5ADB5B1E441C6B
:10489000049DAD1CD8071BD5207800266F463E80AE
:1048A000AE1E3688F60B3601961907073F0FF65DE8
:1048B0006F463E706E463678F60936019619000945
:1048C000305C6E467070684600882880AD1C641CA1
:1048D0005B0836D0207800266F463E80AE1E3688B4
:1048E000F60B3601961907073F0FF65D6F463E70CF
:1048F0006E463678F609360196190009305C6E4628
:104900007070684600882880607800263E802E8877
:10491000F60B3601961907073F0FF65D6F463E709E
:104920006E463678F609360196190009305C6E46F7
:1049300070706846008868805B1E2D1DA41C002BCB
:10494000C8D10498019A52008018801E059A002A46
:1049500004D06A4692895200059B1A800388029A05
:104960001A4002800D98002804D0491ECA40D10781
:10497000C90F0170002007B0F0BC7047FFFF0000B6
:1049800033CDCB35D32D2BD5B34D4BB553ADAB5527
:10499000CC3234CA2CD2D42A4CB2B44AAC5254AA27
:1049A000F0B4012902D0022925D049E0002801D124
:1049B000002100E002219022D20514684E0003235A
:1049C000B340DF4301253C40A4460124B440664681
:1049D0003443146094683C4023439360546801233B
:1049E0008B409C435460D1680F40D760002800D0B2
:1049F0000425956224E0002801D1052100E004216E
:104A00009022D20517684E000323B340DC430125F2
:104A10002740BC460127B740664637431760966873
:104A200026403343936053688D40AB435360D16855
:104A30000C40D460002801D1202000E010209062BA
:104A4000F0BC7047F0B482B0012902D0022940D0F6
:104A500090E00127002802D10021019702E0022105
:104A60000422019203224C000323A340DC43902341
:104A7000DB051D6825401D600F268D00AE400096A9
:104A8000F5431E6A2E401E629E6826409E605E6848
:104A90008F40BE435E60D9680C40DC60374C2168B3
:104AA000009E0E4011D121680D402560019CE1431C
:104AB000334C25680D40256065680D406560A5682C
:104AC0000D40A560E5682940E160002848D002203B
:104AD00046E0002802D10527202101E0042710210B
:104AE00003227C000323A340DC4300949023DB05D6
:104AF0001C68009D25401D601D6AAC46BD000F244A
:104B0000AC406546A5431D629C68009D25409D60A4
:104B10005C680125BD40AC435C60DC68009D2540BD
:104B2000DD60164C656803263E40B6000F27B7408F
:104B30003D4010D16568BD436560CD43104C216890
:104B400029402160616829406160A1682940A16015
:104B5000E1680D40E560002801D1052000E0042057
:104B600040008240D043196801400A431A60D96866
:104B70000840D86002B0F0BC704700BF0800014098
:104B80000004014030B58FB0BE4C28212000FFF753
:104B900033FE25001C350320687200204D2160542F
:104BA00000F0BAFB00220321032000F0CFFB00221B
:104BB0000421002000F0CAFBB34800F083FC00F0A1
:104BC000A0FC2900200000F0D9FC00F009FDBF493D
:104BD00082B06846202200F083FB0CBC697A00207A
:104BE00000F082FD2A782100002001F0F5FF01206D
:104BF00002F030FB0920FBF7C5FA0820FBF7C2FAE8
:104C0000002002F02FFB0420FBF7BCFA0220FBF788
:104C1000B9FAAF480268697A002002F077F9AD4D21
:104C20002A684D20215C012002F070F9002100204B
:104C300002F078F90021012002F074F90AA800BFFF
:104C400011A1142200F04CFB00210AA802F026FB5F
:104C5000686005A811A1142200F042FB5034002125
:104C600005A802F01BFB6060684600BF10A114227B
:104C700000F036FB0021684602F010FB206002F0D5
:104C80003DFB00200FB030BDA0D00008316F000800
:104C9000FEFF00000000000080000000A8D0000817
:104CA000D74C000802000000000000008000000057
:104CB000B0D00008C54C0008020000000000000051
:104CC000C000000000B581B0002000F033FE0220DB
:104CD00002F000FBF8E7F0B587B06A4D2C001C34F9
:104CE0007B4EFA273F0125E0002002F0B3FA32683C
:104CF0000021002002F00AF900220421032000F024
:104D000025FB00220021052000F020FB6F4982B026
:104D10006846202200F0E4FA0CBC617A002000F022
:104D2000E3FC22782900002001F056FF002100203A
:104D300002F0F8F8380002F0CDFA0121002002F06C
:104D4000F1F8607A032801D1042000E003206072AA
:104D5000607A0328C8D1002002F084FA3268012169
:104D6000002002F0D3F8002203210320CCE730B565
:104D700081B01500012956D0032903D0042929D078
:104D800005297CD1544C206B02F0B8FA60780328D6
:104D90000FD1C82002F09EFA0121002000F07CFC17
:104DA00000220521042000F0D1FA2900002000F0A3
:104DB0008BFC012D01D1062100E0072100220520F6
:104DC00000F0C4FA012020700121002002F016F842
:104DD000E06A52E0012D01D1062100E00721002206
:104DE000052000F0B3FA3C4C2078002847D06078CA
:104DF000032844D1002000F030FC002200210420D0
:104E000000F0A4FA0021002000F05EFCC82002F0AF
:104E100061FA0021002001F0F1FF00202070E06A1B
:104E200002F06CFA28E02C4CE06A02F067FA607835
:104E3000032802D0042810D013E0002000F00DFC5D
:104E400000220021042000F081FA0021002000F05F
:104E50003BFC642002F03EFA03E00022002100F057
:104E600075FA00220021052000F070FA00210020D0
:104E700001F0C4FF00202070206B02F046FA01B060
:104E800030BD0000503C00207C3B002000B581B0CC
:104E900001290FD0032901D0052915D1012A01D1FB
:104EA000062100E007210022022000F04FFA002234
:104EB000052106E000220021022000F047FA00222E
:104EC0000021012000F042FA01B000BD20010020C5
:104ED0001401002018010020743C002010B50400CB
:104EE00000F0BBFB002C01D1042000E001200022D7
:104EF000002100F02BFA10BD10B5040000F0ADFB4E
:104F0000002C01D1042000E001200022002100F04B
:104F10001DFA10BD10B50400012100F0BDFB002CEE
:104F200001D1042000E001200022052100F00EFA4A
:104F300010BD00B581B0002901D0491EC9B200F0F2
:104F400033FB01B000BD00B581B0002801D10420C1
:104F500000E001200022012100F0F8F901B000BDBD
:104F60000020704700B581B002F07CF901B000BDAF
:104F700000B581B002F06EF901B000BD8021890159
:104F8000884200D0704700B581B0002001F033F9AD
:104F900001B000BD10B582B08B4C012061680143A7
:104FA00061606168084000900098002200210020A4
:104FB000C043FDF779FC8020800221680143216015
:104FC00021680840009000988020C00221680143B9
:104FD000216021680840009000988020000321682B
:104FE0000143216021680840009000988020400320
:104FF00021680143216021680840009000988020CA
:10500000C003216801432160216808400090009896
:1050100002B010BD10B582B06B4C600D61680143E9
:1050200061606168084000900098FBF735FA012044
:105030002168014321602168084000900098FBF737
:1050400052FA02B010BD00B581B0FBF76EFA01B0A4
:1050500000BD10B586B000685C4988420AD10024C2
:105060005B48090C42680A43426040680140009175
:10507000009821E0574988421BD10124890C5448EB
:1050800002680A430260006801400091009808200D
:1050900001900220029000200390032104910590CA
:1050A00001A94D48FCF78AFD2000FBF74BFD06B037
:1050B00010BDE4B2002CEAD180208001E8E781B085
:1050C000402041490A6802430A600968084000908C
:1050D000009801B0704730B587B0020002210291FC
:1050E000002303930320049012683C4CA24217D083
:1050F0003B4CA24220D10124C803354A1568054320
:105100001560126810400090009888030190029189
:1051100003930493059401A92F48FCF74FFD50E039
:105120000024FD302A4A55680543556052681040F6
:10513000009000980220E9E72A4CA24210D02A4CA5
:10514000A24216D101248802214A1168014311604C
:1051500011680840009000982000FBF78BFD30E0BC
:1051600000241B4A50680843506050680140009179
:10517000F1E71E4CA24215D01D498A4221D10124DB
:10518000A104134A13680B43136012681140009185
:105190000099032116200022FDF786FB002C0DD17B
:1051A00015200CE000240804094A13680343136027
:1051B00012681040009000981520ECE71620FDF7CB
:1051C0008DFB07B030BD00001410024000380040D5
:1051D0001810024000300140000400480020004048
:1051E0000040014000040040002C01400044014008
:1051F0000048014000B581B01348016810220A43FD
:105200000260032000F005F8FFF7C4FE002001B0A3
:1052100000BD10B50400FEF7C7FAFA218900FEF7B9
:1052200052FBFDF769FB002221000020C043FDF77F
:105230003BFB002010BD05480168491C0160704718
:105240000248006870470000002002408C3E0020A9
:1052500030B40179002907D100681649416181689D
:105260001822914381601BE0C26881681F230124DA
:105270000D00DD40254003D11D006B1E002DF7D130
:10528000082A04D0102A0ED0182A0FD001E0102BC3
:105290000ED2006841618168182399430A438260F5
:1052A000002030BC7047082BF3D301E0072BF0D36C
:1052B0000120F6E7B71DC104124207D08B0706D0C4
:1052C0000B78491C0370401C521EF7D870478307A7
:1052D00006D00B78491C0370401C521EF9D1704750
:1052E00070B4103A03D378C9103A78C0FBD2530790
:1052F00001D318C918C001D508C908C0D20704D302
:105300000B880380891C801C002A01D50B78037050
:1053100070BC70477047FEE700B581B0002002F016
:105320000BF8012002F008F8022002F005F8032033
:1053300002F002F8042001F0FFFF052001F0FCFF5D
:1053400000205949C88401B000BD000030B585B0C7
:105350000500062836DA0B0004D0012909D08C1E7E
:10536000062C2FD2022904D113000A3B4F4CA34232
:1053700028D24D4C4300181840002018417042803C
:105380000022828000291AD0491E05D0491E07D06C
:10539000491E042906D915E0280002F02DF811E075
:1053A00041888180A06A002809D1684640A1142262
:1053B000FFF796FF0021684601F070FFA062280009
:1053C00002F028F805B030BDF0B585B0364F16E0D4
:1053D0000399884202D00299884202D1200002F04B
:1053E00019F8641CAD1D062C15DBF88C401C80B22E
:1053F000B98CFEF765FAF984642001F06BFFB88C74
:10540000460800243D00B01C0190301D0290701C25
:105410000390F01C00906878811E0629E1D2801E5E
:105420000528DED801A109568F4400BF062A3E5246
:105430005E6CA88869884908FEF742FA002902D103
:10544000200001F0F5FFA888401C80B26988FEF7B3
:1054500037FAA980C5E7F88C002803D1200001F0B5
:10546000CBFFBEE70228BCD1B8E7F88C0028F5D006
:105470000328F3D00128B1D00428B2D1AEE7F88CCC
:105480000028EBD00228ACD1A8E7F88CB042E5D0D8
:1054900001998842A5D1A1E7F88CB042DED00099ED
:1054A000884295D1DAE700001C00002007270000A1
:1054B000C8D00008C9530008010000000000000027
:1054C0008000000030B581B00500002264210A2070
:1054D00002F03AF8244CA060002801D172B6FEE731
:1054E000002264210A2002F02FF86060002801D118
:1054F00072B6FEE7E560002D01D172B6FEE701B09D
:1055000030BD10B582B0184CE06800906368A268A6
:105510000121802002F016FBA36862680021802030
:1055200002F0DAFE00F002F802B010BD10B50E4C29
:10553000E068002801D172B6FEE70122A11C03F049
:105540008FF8207010BD000000B581B00649CA6810
:10555000824201D072B6FEE7887802F036FBFFF790
:10556000E5FF01B000BD0000643E002000B581B041
:105570000021C166FFF7DAFF01B000BD10B44C4A4C
:105580004C4B13604C4C54604C4C94604C4CD4606D
:1055900003605368436093688360D268C2600420EC
:1055A0000870002010BC704710B504000120022CC8
:1055B00015DA3F4A890051588A0710D10803800D37
:1055C00003F0CAFA03F0D8FA00223E4B03F0EDFADA
:1055D00003F0AEFB81B2200003F0D4FB002010BD2D
:1055E00030B581B00324324D0021002003F0CCFB04
:1055F000286820420FD10003800D03F0ADFA03F0BC
:10560000BBFA00222F4B03F0D0FA03F091FB81B2DA
:10561000002003F0B7FB0021002003F0B5FB0021C0
:10562000012003F0B1FB286820420FD10003800D58
:1056300003F092FA03F0A0FA0022224B03F0B5FA2D
:1056400003F076FB81B2012003F09CFB00210120D6
:1056500003F09AFB002001B030BD10B50400022C0D
:1056600001DB012010BD002103F08EFB1048006813
:1056700081070FD10003800D03F06EFA03F07CFA6E
:105680000022104B03F091FA03F052FB81B220008C
:1056900003F078FB002010BD00B581B0022801DBCB
:1056A000012002E003F070FB002001B000BD00000B
:1056B000743E00202C9101082CD102002CB1040072
:1056C0002C4106000000494000B581B0012901D1FC
:1056D000022104E0022901D1012100E00021FAF7B2
:1056E00073FD01B000BDFEE70CB430B587B0050016
:1056F0000C00012C01D0032C0BD10AA982B0684602
:105700002022FFF7EDFD0CBC2100280000F011F86D
:105710000AE00AA982B068462022FFF7E1FD0CBC2E
:105720002100280000F082F807B0029930BC03B0D5
:1057300008470CB4F0B585B004000D009021490075
:105740007B4A4843171814373800FFF755F80026EE
:10575000BC217E52B020400078521E213800DF303C
:10576000FFF748F83900DE31CE771E213800C0300F
:10577000FFF742F8DE217E543900A931CD720122B3
:105780000A734D7338004C30027142710F238371DC
:10579000C37102720E7002224A713B00BC33DE708C
:1057A000634A14748E704E70066080204000381872
:1057B000066046608660C6600661466186610A9A38
:1057C000002A00D002600B9A130000D042600C9AAD
:1057D000130000D082600D9A130000D0C2600E9AB0
:1057E000130000D002610F9A130000D04261109A9A
:1057F000130000D08261119A130000D0C261087BAF
:105800000390C87A0290C0370197494883B069462F
:105810000CC80CC10CC80CC10EBC200003F0BCFCB1
:10582000002005B00499F0BC03B008470DB4F0B5F2
:1058300084B00F00902149003D4809AA12784A43DC
:10584000841814342000FEF7D7FF2500A835002661
:10585000AE824020A8821E212000DF30FEF7CAFF62
:105860002100DE31CE771E212000C030FEF7C4FFBC
:10587000DE2166542F736E73AF7320005030012108
:105880008170C17011220270427001712E7002206D
:10589000A871EE73AE75AE7020002030090601606D
:1058A00009A90978224A1174EE70C662802040006E
:1058B0002018066046608660C660066146618661A3
:1058C0000A99002900D001600B990A0000D04160BC
:1058D0000C990A0000D081600D990A0000D0C160C7
:1058E0000E990A0000D001610F990A0000D04161B1
:1058F00010990A0000D0816111990A0000D0C1619D
:10590000687B0390287B0290C0340194084883B0E0
:1059100069460CC80CC10CC80CC10EBC09A80078A3
:1059200003F03AFC002004B00499F0BC04B008472E
:105930004001002010B5040000F008F8200000F03D
:105940001BFA200001F0F6F910BD0000F1B584B09B
:10595000A9486946097CCA00511849014618350012
:10596000143502272C0050342078401E212800D9FD
:10597000ECE102A14000095A8F4400BF440022021A
:10598000D0038002B6016A00D003BA00A6013E012E
:1059900058019402BE02D402E202D003D003D00325
:1059A000F602140326035803700394038803D003FC
:1059B000D003D003D003D003D003AA03D003C6037F
:1059C0002800A930C178012900D0BFE10021E160A1
:1059D000062222704170BC352888BB490140F8017D
:1059E000084328807FE12079012802D0022818D0BE
:1059F000ACE1EA692900280000F020FC0700B34868
:105A00002063062F0BD100212163A162E160A16018
:105A10000820207001202071AD48206296E102200C
:105A200062E1206B80210906884200D08EE10020CF
:105A30002063062056E12800A9300178012908D00A
:105A4000216A80221206914203D1002020620520A3
:105A500048E10178012900D078E129001C31896AE8
:105A60008A05920D02920A03920D019249004A0F93
:105A700000218170002A19D0EB69934216D393005C
:105A8000EB181B1F1B6800939B059B0D019EB342E7
:105A90000CD3029EB34209D3009B1B039B0D3226FD
:105AA00073431C352B6382700A2200E009222270A6
:105AB000012222710170216248E1A648E0622800BB
:105AC00000F045FC0700062F00D00CE1A2486063FF
:105AD0000B201BE1606B80210906884200D035E174
